:100000000C945A010C948B010C948B010C948B0171
:100010000C948B010C948B010C948B010C948B0130
:100020000C948B010C9487040C9487040C94870423
:100030000C948B010C948B010C948B010C948B0110
:100040000C948B010C948B010C948B010C948B0100
:100050000C948B010C948B010C948B010C943D043B
:100060000C948B010C948B010C948B010C948B01E0
:100070000C948B010C948B010C948B010C948B01D0
:100080000C948B010C948B010C948B010C948B01C0
:100090000C948B010C948B010C948B010C948B01B0
:1000A0000C948B010C948B010C948B010C948B01A0
:1000B0000C948B010C948B010C948B010C948B0190
:1000C0000C948B010C948B010C948B010C948B0180
:1000D0000C948B010C948B010C948B010C948B0170
:1000E0000C948B010C94C7020C94F7010C948F02B2
:1000F0000C9408030C9405020C94FA030C944E0320
:100100000C94EA020C94E0010C94D8010C94BD020A
:100110000C94ED010C949A060C9440070C9409027F
:100120000C94E9010C94E3010C948A020C94A30250
:100130000C94FB010C94BD010C9499020C940F02D9
:100140000C94DB020C94DC010C9401020C94B502BB
:100150000C9413020C9467030C94F4020C94210386
:100160000C94F3010C94D9030C9482020C94FE02BB
:100170000C94AD020C94D1020C941C030C94120349
:100180000C94D4010C94C2010C94C3030C94660328
:10019000000020002300260029002C002F00320040
:1001A00000010000030106010901000021002400F4
:1001B00027002A002D003000330001010000040157
:1001C00007010A0100002200250028002B002E0054
:1001D0003100340002010000050108010B01050592
:1001E0000505070508080808020202020A0A0808AD
:1001F00004040404010101010101010103030303DB
:1002000003030303040707070C0C0C0C0C0C0C0C69
:100210000202020206060606060606060B0B0B0B7A
:100220000B0B0B0B0102102020080810204010209F
:1002300040800201020108040201010204081020AA
:1002400040808040201008040201800402018040A8
:100250002010080402010804020101020408102011
:100260004080010204081020408000000A0B0209AF
:100270000C0D0E0807030401000000000000000040
:10028000000000000000000000000000000000006E
:10029000000000000000121110000000000000002B
:1002A000000000000000000000000000000000004E
:1002B0009A06400711241FBECFEFD1E2DEBFCDBFAB
:1002C00000E00CBF12E0A0E0B2E0ECEEFEE000E0E7
:1002D0000BBF02C007900D92A431B107D9F722E0FD
:1002E000A4E1B2E001C01D92A838B207E1F711E025
:1002F000C9E5D1E000E006C021970109802FFE0189
:100300000E945C07C835D10780E00807A9F70E9462
:1003100003050C9464070C940000282F30E0F901C9
:10032000E659FD4F9491F901EC5DFD4F4491225245
:100330003E4FF9012491222309F435C0992311F18C
:1003400091509231F8F4E92FF0E08827E555FE4FFF
:100350008F4F0C945C07DC01E001BD01D401D80192
:10036000C201E301E901ED01F301F701FB01010223
:100370000502C20109020F021302809180008F77EB
:1003800080938000E22FF0E0EE0FFF1FEC53FE4F52
:10039000A591B4918FB7F894EC91611148C0409544
:1003A0004E234C938FBF0895809180008F7DE8CFBE
:1003B00080918000877FE4CF84B58F7784BDE2CFC2
:1003C00084B58F7DFBCF8091B0008F778093B00094
:1003D000D9CF8091B0008F7DF9CF809190008F7739
:1003E00080939000CFCF809190008F7DF9CF809146
:1003F0009000877FF5CF8091A0008F778093A00039
:10040000C1CF8091A0008F7DF9CF8091A000877F20
:10041000F5CF809120018F7780932001B3CF809119
:1004200020018F7DF9CF80912001877FF5CF4E2B62
:10043000B8CFCF93DF9390E0FC01EC5DFD4F2491AA
:1004400082529E4FFC0184918823D1F090E0880F66
:10045000991FFC01E655FE4FA591B491FC01EC53A8
:10046000FE4FC591D49161110EC09FB7F8948C9145
:10047000E22FE0958E238C932881E223E8839FBFAF
:10048000DF91CF9108958FB7F894EC91E22BEC9324
:100490008FBFF6CF1F93CF93DF93182FEB0161E04F
:1004A0000E941902209739F460E0812FDF91CF91EB
:1004B0001F910C948D01CF3FD10511F461E0F5CF70
:1004C000E12FF0E0E659FD4FE491E150E23108F010
:1004D000B3C0F0E08827E059FD4F8F4F0C945C07C4
:1004E00082028A028F029902A3021C03AD02B502A6
:1004F000BD02C702D102DB02EA02F4021C03FE02C3
:100500000803120384B5806884BDC7BDDF91CF9115
:100510001F91089584B5806284BDC8BDF7CF8091D6
:100520008000806880938000D0938900C093880009
:10053000EDCF80918000806280938000D0938B000B
:10054000C0938A00E3CF8091800088608093800010
:10055000D0938D00C0938C00D9CF8091B00080687B
:100560008093B000C093B300D1CF8091B00080627F
:100570008093B000C093B400C9CF80919000806890
:1005800080939000D0939900C0939800BFCF809142
:100590009000806280939000D0939B00C0939A005B
:1005A000B5CF80919000886080939000D0939D009B
:1005B000C0939C00ABCF8091A00080688093A00086
:1005C0008091A0008F7B8093A000D093A900C0935E
:1005D000A8009CCF8091A00080628093A000D0935F
:1005E000AB00C093AA0092CF8091A0008860809356
:1005F000A000D093AD00C093AC0088CF80912001C3
:10060000806880932001D0932901C09328017ECF78
:1006100080912001806280932001D0932B01C093B0
:100620002A0174CF80912001886080932001D093AB
:100630002D01C0932C016ACFC038D1050CF03ECFFC
:1006400033CFAF92BF92CF92DF92EF92FF920F9390
:100650001F93CF93DF936C017B018B01040F151F58
:10066000EB015E01AE18BF08C017D10759F06991C0
:10067000D601ED91FC910190F081E02DC601199514
:10068000892B79F7C501DF91CF911F910F91FF90D1
:10069000EF90DF90CF90BF90AF90089520915602D9
:1006A000309157022817390771F4909154028091C4
:1006B0005502981741F0E0915402F0E0EC5EFD4FD6
:1006C000808190E008958FEF9FEF08950895EF9255
:1006D000FF920F931F93CF93DF93DC015C96ED9015
:1006E000FC905D97E114F10479F481E090E01396B9
:1006F0009C938E93129790E080E0DF91CF911F91B1
:100700000F91FF90EF9008955196ED91FC915297C3
:1007100050968C915097982F90950FB75E962C918C
:100720005E97122F127021FD6095F894208111239D
:1007300019F1282B2083E7012197F1F728E0462FB4
:1007400050E0308160FF1AC0382B3083E7012197D9
:10075000F1F7BA0175956795215089F7112381F05A
:100760008081892380830FBF5C968D919C91019736
:10077000F1F781E090E0C1CF2923DCCF3923E5CF29
:100780009081892BEFCF2091560230915702281784
:10079000390761F4809155022091540290E0805C09
:1007A0009F4F821B91098F739927089590E080E0F5
:1007B0000895209156023091570228173907B9F44D
:1007C0009091540280915502981789F0E09154025B
:1007D000F0E0EC5EFD4F80812091540230E02F5F0D
:1007E0003F4F2F7333272093540290E008958FEFEB
:1007F0009FEF089590E080E008950F931F93CF93AB
:10080000DF938C01EB01FC0180819181009739F02D
:100810000197D9F0DF91CF911F910F9108958281B7
:1008200077FD0BC00E944A0260E0F8018381DF91EE
:10083000CF911F910F910C948D01662777276C1B28
:100840007D0B0E944A0261E0F0CF828177FD0CC0EF
:100850000E944A0270E060E0F8018381DF91CF914D
:100860001F910F910C944A0270E060E00E944A02CE
:10087000662777276C1B7D0BEFCF1F920F920FB669
:100880000F9211242F933F938F939F93AF93BF9316
:100890008091840290918502A0918602B091870296
:1008A0003091830223E0230F2D3758F50196A11DC7
:1008B000B11D209383028093840290938502A093BC
:1008C0008602B093870280917F0290918002A0916E
:1008D0008102B09182020196A11DB11D80937F0219
:1008E00090938002A0938102B0938202BF91AF9156
:1008F0009F918F913F912F910F900FBE0F901F905E
:10090000189526E8230F0296A11DB11DD2CF1F9284
:100910000F920FB60F9211240BB60F922F933F93A5
:100920004F935F936F937F938F939F93AF93BF93F7
:10093000EF93FF93E0915602F0915702309749F000
:10094000A685B7858585968D91FF16C09C918923D4
:10095000B1F4FF91EF91BF91AF919F918F917F91F2
:100960006F915F914F913F912F910F900BBE0F9020
:100970000FBE0F901F9018959C91892351F7A38962
:10098000B4899C918589809589238C9386899789E0
:100990000197F1F7608D718DA685B785558538E093
:1009A00020E0CB010197F1F7822F90E09595879594
:1009B000282F4C91452309F02068315091F7868DFE
:1009C00081FD20958091550290E001968F739927C3
:1009D00030915402381799F0A0915502B0E0AC5E06
:1009E000BD4F2C9380935502828D938D0197F1F723
:1009F000A389B4898C919589892B8C93AACF868DF4
:100A00008160868FF1CF789484B5826084BD84B58F
:100A1000816084BD85B5826085BD85B5816085BDF9
:100A200080916E00816080936E00109281008091B1
:100A30008100826080938100809181008160809339
:100A40008100809180008160809380008091B1005E
:100A500084608093B1008091B00081608093B00089
:100A600080919100826080939100809191008160DB
:100A7000809391008091900081608093900080919C
:100A8000A10082608093A1008091A1008160809389
:100A9000A1008091A00081608093A000809121013D
:100AA00082608093210180912101816080932101E6
:100AB0008091200181608093200180917A00846080
:100AC00080937A0080917A00826080937A0080918E
:100AD0007A00816080937A0080917A0080688093A8
:100AE0007A001092C10060E08CE00E94190261E07F
:100AF0008DE00E94190210927B0210927A021092ED
:100B000079021092780210927702109276028DE9A3
:100B100091E090937D0280937C0280916C0296EF2D
:100B2000980F943048F02EEC280F243028F022EC57
:100B3000280F283008F061C02DEB30E030937702A9
:100B4000209376022BE931E03093790220937802EA
:100B50002CE231E030937B0220937A02943050F003
:100B60002EEC280F243030F022EC280FF0E0E0E0EB
:100B7000283010F4E8E6F0E02081943028F032ECE0
:100B8000380F383008F498C031E0232B943048F007
:100B90009EEC980F943028F08E53F0E0E0E088301F
:100BA00010F4E8E6F0E0208320916C0236EF320F7B
:100BB000343008F483C08EEC820F843008F47EC099
:100BC00082EC820F883008F47CC090E080E0909343
:100BD000740280937302343008F076C02650330BD1
:100BE00081E001C0880F2A95EAF780937502809111
:100BF0007C0290917D020197F1F780917A029091A9
:100C00007B02892B49F1E0915602F091570282E074
:100C1000E036F80709F1309739F0A389B4899C913F
:100C20008589809589238C9380917E028E7F809325
:100C30007E02109255021092540280E692E0909348
:100C4000570280935602E0917302F0917402808102
:100C500090917502892B808370E060E08CE592E0D2
:100C60000E94FD0370E060E088E592E00E94FD03D1
:100C7000C0E0D0E080E692E00E94C3031816190697
:100C800034F480E692E00E94D903809300028091C0
:100C90000002833771F570E060E08CE592E00E941D
:100CA000FD0370E060E088E592E00E94FD0320977C
:100CB00009F30E940000DECF34E067CF8BE690E0BE
:100CC00086CF8DE690E083CF88E0223309F48DCF84
:100CD00084E0233309F489CF82E0243309F485CFFB
:100CE00082EC820F883018F42E53330B79CF81E0D9
:100CF0007CCF863649F460E870E08CE592E00E9493
:100D0000FD0360E870E0CFCF823649F460E87FEF02
:100D10008CE592E00E94FD0360E87FEFC4CF8C3643
:100D200031F662E070E08CE592E00E94FD0367E33B
:100D300070E0B9CF109263021092620288EE93E0E5
:100D4000A0E0B0E08093640290936502A0936602F5
:100D5000B093670285E092E0909361028093600215
:100D60001092770210927602109279021092780215
:100D700010927B0210927A0210927D0210927C02F5
:100D800060917E026E7F6D7F60937E0266956170DA
:100D900081E068278DE00E948D0161E08DE00E9476
:100DA0001902E1E3F2E0E491E0937002EBEEF1E08E
:100DB000E491F0E0EE0FFF1FEC53FE4F859194910C
:100DC000909372028093710260E08CE00E9419029D
:100DD00080917E0281FD04C061E08CE00E948D0163
:100DE0008CE080936C02E0E3F2E0E491E0936D022A
:100DF000EAEEF1E0E491F0E0EE0FFF1FE057FE4F66
:100E00008591949190936F0280936E0210925D028F
:100E100010925C0285E080935E0284E080935F0222
:100E200061E085E00E94190261E080915F020E940A
:100E3000190260E080915E020E948D0160E0809165
:100E40005F020E948D01109259021092580286E0B2
:100E500080935A0287E080935B0261E086E00E9403
:100E6000190261E080915B020E94190260E08091AA
:100E70005A020E948D0160E080915B020C948D010A
:100E800085E092E090936102809360028091560227
:100E9000909157028056924071F4E0917302F09164
:100EA00074029081809175028095892380831092CD
:100EB0005702109256020895EE0FFF1F881F8BBF36
:100EC0000790F691E02D199411E0C9E5D1E000E01A
:100ED00006C0802FFE010E945C072196011DCA35C5
:0C0EE000D10780E00807A9F7F894FFCFC5
:100EEC00730000000067032103FA036603C303D9F0
:040EFC00034E03009E
:00000001FF
